:100000000C946A000C94A3210C94CA210C949200C5
:100010000C9492000C9492000C9492000C94920018
:100020000C9492000C9492000C9492000C94920008
:100030000C9492000C9492000C9492000C949200F8
:100040000C94F1210C9492000C94FB240C942D251B
:100050000C9492000C9492000C9492000C949200D8
:100060000C9492000C949200000000080002010021
:100070000003040700000000000000000102040863
:100080001020408001020408102001020408102002
:10009000040404040404040402020202020203032E
:1000A00003030303000000002300260029000000D2
:1000B0000000250028002B0000000000240027007D
:1000C0002A00DD00DE0599097A0B100D7B0F1D1F3C
:1000D0005D250B2611241FBECFEFD8E0DEBFCDBFBC
:1000E00014E0A0E0B1E0EAE8FCE502C005900D9262
:1000F000A23CB107D9F727E0A2ECB4E001C01D9201
:10010000A336B207E1F710E0C4EDD0E004C02297B7
:10011000FE010E94462BC23CD107C9F70E941B2654
:100120000C94432E0C9400000E9624E1FC011192D5
:100130002A95E9F70895CF93DF93EC01625F7F4F33
:100140000E94F025CE01DF91CF910895CF93DF93E8
:10015000EC016E5E7F4F0E94F025CE01DF91CF91C2
:100160000895CF93DF93EC016A5E7F4F0E94F025E4
:10017000CE01DF91CF910895CF93DF93EC01625EC2
:100180007F4F0E94F025CE01DF91CF91089580E34B
:10019000FB0180833296842F82958F7090E1899F36
:1001A000401911244A3014F4405D01C0495C429367
:1001B000882311F0482FEFCF08950F9300E020E03F
:1001C00040E060E082EC94E00E94E4250F91089505
:1001D0006F927F928F929F92AF92BF92CF92DF9257
:1001E000EF92FF920F931F93CF93DF93CDB7DEB7BC
:1001F000AC970FB6F894DEBF0FBECDBF7C01862E44
:10020000B42EA52E20E2922ECE0101966C01FC01A7
:10021000292D11922A95E9F70FEF2FEF4FEF6FEF8E
:1002200086960E94E42583EB94E09AA389A389A58E
:100230009AA5ABA5BCA58BA39CA3ADA3BEA3870128
:100240000D5B1F4F43E450E0BE016F5D7F4FC8015F
:100250000E94770D019609F4BFC081E089838A83EB
:1002600086E0782E7B821C82F7016481758186810D
:1002700097810E941C2B6D837E838F839887A9862C
:10028000BA8680E890E09C878B874CE150E0B6010D
:10029000C8010E94830DF601292D11922A95E9F7D4
:1002A000570188E0A80EB11CF501D60101900D920E
:1002B0007A94E1F740E150E0B601C8010E94830D55
:1002C000F60111929A94E9F796E0692E712C40E2BA
:1002D00050E0B601C8010E94830DF1E06F1A710869
:1002E000B1F783E6898392E89A8393E59B838C83B5
:1002F00085E38D8381E08E838F829DE3988797E0ED
:1003000099878A8786E0F501DE011B9601900D92A0
:100310008A95E1F78CE0898B8A8B61E271E0CE01EE
:1003200043960E94AE2DF7014385BE01675E7F4F65
:10033000C7010E94C700F7014485BE01655E7F4F7B
:10034000C7010E94C700F7014585BE01635E7F4F6C
:10035000C7010E94C7004EE150E0B601C8010E94EB
:10036000830DF3E08F121EC082E3898384E08A83C9
:10037000F70196859B8397859C8390899D839189BE
:100380009E8396E39F838887828D8987838D8A8762
:10039000848D8B87858D8C874CE050E0B601C80139
:1003A0000E94830D87E3898386E08A8391E09B83A3
:1003B00093E09C838D838FE08E838AE38F838BE32E
:1003C00088878FEF898749E050E0B601C8010E9415
:1003D000830DC8010E947F0DAC960FB6F894DEBF66
:1003E0000FBECDBFDF91CF911F910F91FF90EF9086
:1003F000DF90CF90BF90AF909F908F907F906F9045
:1004000008952F923F924F925F926F927F928F92B8
:100410009F92AF92BF92CF92DF92EF92FF920F9393
:100420001F93CF93DF93CDB7DEB7E3970FB6F89462
:10043000DEBF0FBECDBF7C012A013B0169010E94D6
:100440003B224B015C0187010D5B1F4FC8010E94DD
:10045000230E1816190694F00E943B226819790998
:100460008A099B094616570668067906F0F062E38A
:1004700070E080E090E00E946A22E8CF42E250E023
:10048000BE016F5F7F4FC8010E94C00D898182301D
:1004900031F4F801848995898334910541F019A6D6
:1004A000C8010E94500D89A566C18FEF64C16D819E
:1004B0007E818F8198850E941C2B4B015C01F60187
:1004C000608371838283938346E050E0B701685F65
:1004D0007F4FCE014D960E94982D892B99F4F701FC
:1004E00080819181A281B38188169906AA06BB06F4
:1004F00048F084819581A681B78188159905AA0560
:10050000BB0528F4C8010E94500D80E034C18989E0
:100510009A89AB89BC89F70186879787A08BB18BB5
:100520003EECC32ED12CC8010E94970DF1E0CF1AEA
:10053000D108C9F719A6C70182969BA78AA7F70118
:10054000B696FDA7ECA708969FA78EA73C976F01CC
:10055000899699AB88AB3897FBABEAAB5701F6E1CC
:10056000AF0EB11C47018EE1880E911CC8010E949C
:10057000360D181619060CF093CFC8010E94970D7E
:100580008333910509F4CDC0F4F481309105B9F1BC
:100590001CF4892B59F3DFC083309105C1F1069714
:1005A00009F0D9C0C8010E94970D3C0144E050E019
:1005B000B401C8010E94C00D212C312C7724F4E035
:1005C0006F1A71083FC08A33910509F47EC03CF46C
:1005D0008533910561F0C69709F43FC0BCC08B33E9
:1005E000910509F488C08F3F910501F2B4C0C8019C
:1005F0000E94970DC8010E94970D89A7B7CFC80127
:100600000E94970D44E050E06AA97BA93AC0C80156
:100610000E94970D3C0144E050E0B501C8010E94E2
:10062000C00D212C312C772494E0691A710826140E
:1006300037040CF09BCFC8010E94970DEFEF2E1AE4
:100640003E0AF5CF261437040CF090CFC8010E9463
:10065000970D8FEF281A380AF5CFC8010E94970D21
:10066000782EF701828D811110C0838D81110DC00C
:10067000848D81110AC0858D811107C044E050E04E
:10068000B601C8010E94C00D71CFE8A9F9A9208068
:10069000318042805380B601CE0183960E94F025BE
:1006A0008DA19EA1AFA1B8A582159305A405B5059E
:1006B00029F3212C312C721409F458CFC8010E945F
:1006C000970DFFEF2F1A3F0AF6CFC8010E94970D32
:1006D00044E050E06CA57DA5C8010E94C00DF70163
:1006E00066A177A180A591A50E941C2B66A377A384
:1006F00080A791A73BCFC8010E94970D44E050E02E
:100700006EA57FA5C8010E94C00DF70162A573A563
:1007100084A595A50E941C2B62A773A784A795A703
:1007200025CFC8010E94970D44E050E06AA57BA543
:10073000C8010E94C00DF70162A173A184A195A117
:100740000E941C2B62A373A384A395A366A777A71B
:1007500080AB91AB0BCFC8010E94970D382E612C56
:10076000712C361409F402CFC8010E94970DFFEFD7
:100770006F1A7F0AF6CFE3960FB6F894DEBF0FBE6E
:10078000CDBFDF91CF911F910F91FF90EF90DF9040
:10079000CF90BF90AF909F908F907F906F905F9021
:1007A0004F903F902F9008952F923F924F925F92DB
:1007B0006F927F928F929F92AF92BF92CF92DF9271
:1007C000EF92FF920F931F93CF93DF9300D000D04F
:1007D0001F92CDB7DEB78C0120ED37E040E050E04E
:1007E00061E070E080E090E00E947627D8011496E6
:1007F0006D937D938D939C931797F801608371831C
:10080000828393834801F3E48F0E911CC4010E94FC
:10081000620D64E470E0C4010E94F60D882309F4BF
:1008200034C10E943B226B017C01212C312C1D82A2
:10083000580182E4A80EB11C48EE442E43E0542E29
:10084000612C712CF5018081833009F405C181117F
:100850001FC0F80184819581A681B7810196A11DF1
:10086000B11D84839583A683B7830E943B226C19B4
:100870007D098E099F09A30192010E94DB2AA9012B
:1008800061E0C8010E94E80081E0D5018C93C6C0F8
:100890008430F9F4F80184819581A681B7810196AD
:1008A000A11DB11D84839583A683B7830E943B223B
:1008B0006C197D098E099F09A30192010E94DB2A10
:1008C000A90163E0C8010E94E800E2E0D501EC93D1
:1008D000A5C0813069F5D801DA964D915D916D9191
:1008E0007C91DD979E012F5F3F4FC8010E9401025E
:1008F0008D83823009F092C089819A81AB81BC815D
:10090000F80184839583A683B7830E943B226C19E8
:100910007D098E099F09A30192010E94DB2AA9018A
:1009200063E0C8010E94E800ED81D501EC937CC032
:10093000823009F073C0D801DA964D915D916D91C6
:100940007C91DD979E012F5F3F4FC8010E940102FD
:100950008D83853009F05CC083E0F5018083F80168
:1009600082A193A1A4A1B5A1892B8A2B8B2B41F441
:1009700084E893E0A0E0B0E082A393A3A4A3B5A38E
:10098000F80186A197A1A0A5B1A5892B8A2B8B2B55
:1009900061F482A193A1A4A1B5A1B695A79597955D
:1009A000879586A397A3A0A7B1A7F80182A593A5D1
:1009B000A4A5B5A5892B8A2B8B2BA9F482A193A181
:1009C000A4A1B5A1AC01BD0123E07695679557952B
:1009D00047952A95D1F7841B950BA60BB70B82A7D9
:1009E00093A7A4A7B5A7F80186A197A1A0A5B1A533
:1009F00086A797A7A0ABB1AB82A593A5A4A5B5A5E3
:100A000082AB93ABA4ABB5AB22242394312C0CC0A6
:100A1000FD81F63019F4D5011C9206C0BD81BF3F9F
:100A200019F4F50110821D82F1E02F16310409F44A
:100A300009CF0E943B226C197D098E099F09D801BC
:100A4000D6962D913D914D915C91D99726173707F8
:100A50004807590708F0F6CEC4010E94620DF8015C
:100A600084819581A681B7810196A11DB11D8483E2
:100A70009583A683B7830E943B22F801FE9660838C
:100A8000718382839383C10102C080E090E00F9064
:100A90000F900F900F900F90DF91CF911F910F91BA
:100AA000FF90EF90DF90CF90BF90AF909F908F908E
:100AB0007F906F905F904F903F902F900895CF92CE
:100AC000DF92EF92FF920F931F93CF93DF93EC018E
:100AD0006B011AA21BA21CA21DA21EA21FA218A675
:100AE00019A61AA61BA61CA61DA62EAB3FAB48AF87
:100AF00059AFEAAEFBAE0CAF1DAF8C01085F1F4FC4
:100B000086E0F80111928A95E9F7CE010E949400DF
:100B100086E0F601D80101900D928A95E1F7FE0179
:100B2000EE5BFF4F1082CE01DF91CF911F910F91AD
:100B3000FF90EF90DF90CF900C94D403FB014281A3
:100B4000538164817581FC0142835383648375837F
:100B5000178216820895FB0120E080E090E06AE0B1
:100B60003191332309F170ED730F7A3080F4DC0199
:100B70006A9FC0016B9F900D1124C097830F911D38
:100B800037FD9A958F3F910559F350F314C03E32CB
:100B900091F4233081F0DA01A20FB11D12968C93EB
:100BA0002F5F80E090E0DCCF233029F4FA018583C9
:100BB00081E090E0089580E090E008950F9300E0D8
:100BC00020E040E060E088EC94E00E94E4250F9192
:100BD0000895AF92BF92CF92DF92EF92FF920F9360
:100BE0001F93CF93DF9300D01F92CDB7DEB76C0178
:100BF0007B010E943B22F601778366838601085FB2
:100C00001F4FB6016A5F7F4F42E050E0C8010E946B
:100C1000830D81E090E09A83898342E050E0BE0139
:100C20006F5F7F4FC8010E94830D80E091E09A833F
:100C3000898342E050E0BE016F5F7F4FC8010E9490
:100C4000830D1A82198242E050E0BE016F5F7F4F30
:100C5000C8010E94830D42E050E0BE016F5F7F4FEC
:100C6000C8010E94830D42E050E0BE016F5F7F4FDC
:100C7000C8010E94830D6701F6018081882311F16C
:100C8000F7016F018191811115C05601AE18BF089F
:100C90001A141B0494F4AB8241E050E0BE016D5F76
:100CA0007F4FC8010E94830DA501B701C8010E94B2
:100CB000830D03C08E3229F7E8CF7601FFEFEF1ADC
:100CC000FF0ADACF1B8241E050E0BE016D5F7F4F2B
:100CD000C8010E94830DE12CFF24F394FA82E9827B
:100CE00042E050E0BE016F5F7F4FC8010E94830D5C
:100CF000FA82E98242E050E0BE016F5F7F4FC80197
:100D00000E94830D81E090E00F900F900F90DF9193
:100D1000CF911F910F91FF90EF90DF90CF90BF90F8
:100D2000AF9008954F925F926F927F928F929F92B1
:100D3000AF92BF92CF92DF92EF92FF920F931F93E9
:100D4000CF93DF93CDB7DEB763970FB6F894DEBFCE
:100D50000FBECDBF7C015B016A010E943B222B01CB
:100D60003C018701085F1F4F4501A12CB12CC80130
:100D70000E94230E1816190694F00E943B22641953
:100D800075098609970986169706A806B906D0F050
:100D900062E370E080E090E00E946A22E8CFF70111
:100DA0004281538164817581808D918DA28DB38D37
:100DB000481759076A077B0741F4848D958DC597BD
:100DC00021F406C08FEF9FEFF9C08EEF9FEFF6C0C2
:100DD000C8010E94360D0C970CF4EEC04CE050E0B8
:100DE000BE016F5F7F4FC8010E94C00D8B819C8147
:100DF0009827892798279A8B898BF70146815781F5
:100E000029813A814217530711F497FD06C0C801A2
:100E10000E94500D8CEF9FEFD1C08F709270892B84
:100E200031F0C8010E94500D8BEF9FEFC7C0AF801B
:100E3000B884BA24AB24BA24A114B10419F0E12C6B
:100E4000F12C23C0C8010E94500D8AEF9FEFB6C05D
:100E500041E050E0BE01635F7F4FC8010E94C00DBA
:100E60008D8581111BC08D858111F2CFC8010E9433
:100E7000970DC8010E94970DC8010E94970DC801E7
:100E80000E94970DFFEFEF1AFF0A8D819E81982730
:100E900089279827E816F906D8F20AC08D859FEFB2
:100EA000980F9D878823F9F2C8010E94970DF6CF0D
:100EB000E12CF12C41E050E0BE016D5E7F4FC80196
:100EC0000E94C00D8B89982F907C61F4882371F06B
:100ED0008B899FEF980F9B8B882341F0C8010E945C
:100EE000970DF6CFC8010E94970D1B8A8B8981113F
:100EF000E1CF42E050E0BE01615F7F4FC8010E9438
:100F0000C00D42E050E0BE01635F7F4FC8010E9408
:100F1000C00DC8010E94970DC8010E94970DC8011D
:100F20000E94970DC8010E94970D42E050E0BE015B
:100F30006F5E7F4FC8010E94C00D8F859889811513
:100F4000914029F48D859E858115914019F0812C61
:100F5000912C16C089899A898115944031F0C80175
:100F60000E94500D87EF9FEF29C0B6016E5F7F4F43
:100F700044E050E0C8010E94C00D81E090E01EC036
:100F800089899A899827892798278816990638F495
:100F9000C8010E94970D2FEF821A920AF1CF8FEFAE
:100FA000E81AF80AEA14FB0409F084CFC8010E9489
:100FB000500D86EF9FEF02C08DEF9FEF63960FB647
:100FC000F894DEBF0FBECDBFDF91CF911F910F917F
:100FD000FF90EF90DF90CF90BF90AF909F908F9059
:100FE0007F906F905F904F9008958F929F92AF92F5
:100FF000BF92CF92DF92EF92FF920F931F93CF9306
:10100000DF9300D000D000D0CDB7DEB78C015B01FC
:101010006A010E94AB054C01009709F05DC0F80120
:1010200042815381648175818091CA049091CB047F
:10103000A091CC04B091CD04481759076A077B07EB
:1010400009F44EC00E943B227801F8E0EF0EF11C3B
:101050006F7077277C5FC7010E94F60D813009F021
:1010600043C083EB94E09A838983F8018281938162
:10107000A481B5818B839C83AD83BE8345E350E01F
:10108000BE016F5F7F4FC7010E94770D892B19F456
:10109000812C912C1DC0B501C8010E94E905892B46
:1010A000B9F3C7010E947F0D892B91F333E0A32E82
:1010B000B12CA60168E873E1C8010E9492064C01B8
:1010C000F1E0AF1AB10821F08F3F2FEF920789F3BB
:1010D000C7010E94620D08C088248394912C04C02B
:1010E0009EEF892E99249A94C40126960FB6F894FF
:1010F000DEBF0FBECDBFDF91CF911F910F91FF904B
:10110000EF90DF90CF90BF90AF909F908F90089519
:1011100020914A06222399F03FB7F89420914A067D
:10112000213059F42DB3209348064DB32091490640
:10113000209524232DBB3FBF02C0309348068CBDB1
:101140009DBD089580914A06882361F09FB7F89469
:1011500020914A0680914806213019F48DBB9FBF2B
:1011600008958FBF089544E050E0BC0181E090E015
:101170000C941E1444E050E0BC0185E090E00C9417
:101180001E1444E050E0BC018FE090E00C941E146B
:101190002F923F924F925F926F927F928F929F9287
:1011A000AF92BF92CF92DF92EF92FF920F931F9375
:1011B000CF93DF9300D000D000D0CDB7DEB76C0165
:1011C0001B0129013A014701580180913405811121
:1011D00007C081E195E00E94030F81E08093340510
:1011E0008EEC94E0F601978386838EE595E00E946D
:1011F000B61380E590E00E94880846E050E0B10117
:1012000089E090E00E941E1400E020E040E060E0F1
:10121000CE0101960E94E425CE0103960E94C108EA
:101220000E94A20885017401A3019201B101F60197
:10123000868197810E945F055C0181309105B9F537
:1012400080E590E00E948808F60166817781CE01F2
:1012500001960E949B00CE0103960E94C108F601F0
:1012600066817781CE0101960E94B100CE0103967E
:101270000E94B308F60166817781CE0101960E9433
:10128000A600CE0103960E94BA080E94A208F601A9
:1012900066817781CE0101960E94BC004B815C8102
:1012A0006D817E81F6014283538364837583C5011A
:1012B00026960FB6F894DEBF0FBECDBFDF91CF915B
:1012C0001F910F91FF90EF90DF90CF90BF90AF9064
:1012D0009F908F907F906F905F904F903F902F9056
:1012E0000895CF93DF93EC010E94DA2580E590E02A
:1012F0000E948808BE016E5F7F4F44E050E08FE09F
:1013000090E00E944F150E94A208CE01DF91CF917C
:10131000089523EB34E0FC0131832083FB014281FB
:10132000538164817581FC01428353836483758397
:1013300008950F9300E020E040E060E084E495E051
:101340000E94E4258CE295E00F910C94DA2581E06F
:1013500086270895862F0895DC01ED91FC91048C79
:10136000F58DE02D099591E089270895CF93DF93BE
:101370001F92CDB7DEB76983DC01ED91FC9102804D
:10138000F381E02D41E050E0BE016F5F7F4F099592
:101390000F90DF91CF91089521E0FC018485843086
:1013A00009F420E0822F0895FC019485FB018485D7
:1013B000981303C081E0943009F480E008950F93FE
:1013C0001F93CF93DF93EC018A018C85843021F049
:1013D0000E945811892B39F481E090E09B838A8325
:1013E00080E090E001C0C801DF91CF911F910F9183
:1013F0000895FC018485843011F00C944F1280E034
:1014000090E00895CF93DF931F92CDB7DEB741E010
:1014100050E0BE016F5F7F4FFC0184850E94EF1199
:10142000181619061CF4898190E002C08FEF9FEF17
:101430000F90DF91CF910895FC0184850C94EF11FA
:101440000F931F93CF93DF931F92CDB7DEB78C011D
:10145000DC01ED91FC910480F581E02D0995892B4B
:1014600051F0BE016F5F7F4FF80184850E947A12B0
:10147000898190E002C08FEF9FEF0F90DF91CF91B5
:101480001F910F910895FC0184850C94A912CF92AD
:10149000DF92EF92FF920F931F93CF93DF93CDB71D
:1014A000DEB7AF970FB6F894DEBF0FBECDBF7C019D
:1014B0008B016A01CE0101960E94DA25CE010996C0
:1014C0000E94030FCE018A960E94DA256CE275E035
:1014D000CE0184960E948909BE016C5D7F4FCE01CA
:1014E00001960E949E05AE01465D5F4FB801CE0198
:1014F00001960E94F50781309105C1F4D701ED9165
:10150000FC910484F585E02D83EB94E09DA38CA3EE
:101510000CA51DA52EA53FA50EA31FA328A739A77F
:10152000A601BE016C5D7F4FC7010995AF960FB64E
:10153000F894DEBF0FBECDBFDF91CF911F910F9109
:10154000FF90EF90DF90CF900895FC01262F13823B
:10155000128248EE53E060E070E044835583668376
:1015600077838CE291E09183808324870895FC0146
:101570008485843011F00C94021080E00895DF928D
:10158000EF92FF920F931F93CF93DF93EC017B01B8
:101590008A018C85843009F045C0D12C8D2D0E94A4
:1015A0000210811102C0DC8607C08B7F8831D9F31D
:1015B000D39484E0D812F2CF8C85843099F12091B5
:1015C0000A0130910B012F5F3F4F11F420E030EC06
:1015D00030930B0120930A0140910A0150910B01B5
:1015E00020E061E00E945410B7016E5F7F4FA801B8
:1015F0008C850E94DA10811103C084E08C8712C0B0
:10160000CE010E94B70A873151F061E070E080E0BE
:1016100090E00E946A22CE010E94B70AECCF81E0DE
:1016200090E002C080E090E0DF91CF911F910F9198
:10163000FF90EF90DF900895CF92DF92EF92FF92AC
:10164000CF93DF93EC018C85843049F10E943211F5
:101650000E943B226B017C01CE010E94B70A8823C5
:10166000A1F061E070E080E090E00E946A220E94B8
:101670003B226C197D098E099F09683E73408105E4
:10168000910550F38C850E942A10EC85F0E0EE0F56
:10169000FF1FE45CFA4F1182108284E08C87DF9197
:1016A000CF91FF90EF90DF90CF900895CF93DF938D
:1016B000EC018C858430D1F0CE010E94B70A8431D0
:1016C000A9F0882399F0883189F08C3169F4E88198
:1016D000F9810480F581E02DCE01099521E0892B67
:1016E00009F420E0822F03C081E001C080E0DF9197
:1016F000CF9108950F9300E020E040E060E08AE49D
:1017000095E00E94E4250F910895CF93DF931F92F7
:10171000CDB7DEB76983DC01ED91FC910280F381E6
:10172000E02D41E050E0BE016F5F7F4F09950F90C3
:10173000DF91CF910895EF92FF920F931F93CF9374
:10174000DF93CDB7DEB72D970FB6F894DEBF0FBE8F
:10175000CDBF7C0100E010E0602FCE0101960E9419
:10176000A50ACE0101960E94B70A811116C0F701A1
:101770004481558120E061E0802F0E945410802F29
:101780000E94A810F70184819581F801EE0FFF1FD8
:10179000E45CFA4F9183808305C00F5F1F4F0430D4
:1017A0001105D1F62D960FB6F894DEBF0FBECDBF52
:1017B000DF91CF911F910F91FF90EF900895FC0161
:1017C0001382128280E591E0918380837583648324
:1017D0000895BF92CF92DF92EF92FF920F931F93E3
:1017E000CF93DF93CDB7DEB72D970FB6F894DEBF5A
:1017F0000FBECDBF8C014CE3C42E45E0D42EB12CDE
:10180000E12CF12C6B2DCE0101960E94A50AD60188
:101810002D913D916D01F80184819581281739073B
:10182000B1F4CE0101960E94B70A843169F0CE016D
:1018300001960E94B70A8C3151F4CE0101960E94A4
:10184000F909892B99F003C0EE24E394F12CB394A9
:10185000F4E0BF12D7CFEF2871F4D801ED91FC91DD
:101860000480F581E02DC801099505C0CE010196DF
:101870000E941C0BECCF2D960FB6F894DEBF0FBE66
:10188000CDBFDF91CF911F910F91FF90EF90DF902F
:10189000CF90BF9008957F928F929F92AF92BF9208
:1018A000CF92DF92EF92FF920F931F93CF93DF932C
:1018B000CDB7DEB72D970FB6F894DEBF0FBECDBF04
:1018C0006C015B014A010E94E90B5CE3E52E55E0E7
:1018D000F52E712C00E010E0672DCE0101960E94DC
:1018E000A50AF701219131917F01F601848195814B
:1018F0002817390731F4CE0101960E94B70A8731C3
:10190000C9F07394F4E07F12E7CFC8012D960FB6AB
:10191000F894DEBF0FBECDBFDF91CF911F910F9125
:10192000FF90EF90DF90CF90BF90AF909F908F90FF
:101930007F900895A401B501CE0101960E94DF09B0
:10194000080F191FDECFBF92CF92DF92EF92FF9266
:101950000F931F93CF93DF93CDB7DEB72D970FB6BD
:10196000F894DEBF0FBECDBF8C016B01CB010E948E
:10197000E90B6CE3E62E65E0F62EB12C6B2DCE0163
:1019800001960E94A50AF701219131917F01F6018C
:10199000848195812817390751F5CE0101960E945F
:1019A000B70A873111F08C3111F5CE0101960E94F2
:1019B000F909892BE1F08B819C81F8019383828363
:1019C0008D819E81AF81B88584839583A683B783FB
:1019D00049855A856B857C854087518762877387E7
:1019E0008CE291E0918380838D85848708C0B394D5
:1019F000F4E0BF12C3CF64E0C8010E94A50AC80189
:101A00002D960FB6F894DEBF0FBECDBFDF91CF91FC
:101A10001F910F91FF90EF90DF90CF90BF900895AE
:101A20000F9300E020E040E060E080E595E00E9458
:101A3000E4250F910895DC01ED91FC91008CF18D6E
:101A4000E02D099423EB34E0FC0131832083FB017A
:101A50004089518962897389FC014283538364837D
:101A600075830895FC01848995890895FC01818D11
:101A7000928D0895CF93DF931F92CDB7DEB7698320
:101A8000DC01ED91FC910280F381E02D41E050E01A
:101A9000BE016F5F7F4F09950F90DF91CF91089541
:101AA000CF93DF93EC01898D9A8D892B41F0E881EA
:101AB000F9810680F781E02DCE010995F4CFDF9101
:101AC000CF910895CF93DF93EC01888D843061F03E
:101AD0000E942A10E88DF0E0EE0FFF1FE45CFA4F41
:101AE0001182108284E0888FDF91CF910895FC01EC
:101AF000178A168A6E5F7F4F808D0C94F112FC015D
:101B0000808D0C943713CF93DF93EC019A018E896B
:101B10009F89AB01BC01888D0E94AA122E893F8942
:101B2000280F391F3F8B2E8BDF91CF9108950F9394
:101B30001F93CF93DF931F92CDB7DEB78C01FC01CB
:101B4000818D928D892B59F041E050E0BE016F5F8D
:101B50007F4F808D0E94EF11181619061CF08FEF31
:101B60009FEF08C0F801818D928D0197928F818F30
:101B7000898190E00F90DF91CF911F910F9108958F
:101B8000CF93DF93EC01898D9A8D009719F48FEF35
:101B90009FEF10C04817590708F0AC01888D0E94CC
:101BA000EF11181619069CF7298D3A8D281B390B51
:101BB0003A8F298FDF91CF910895CF93DF931F92B2
:101BC000CDB7DEB7FC01218D328D232B49F0BE014C
:101BD0006F5F7F4F808D0E947A12898190E002C0F2
:101BE0008FEF9FEF0F90DF91CF910895FF920F93AA
:101BF0001F93CF93DF93EC018B01888D8430E1F448
:101C0000F12C8F2D0E940210811102C0F88E06C0A7
:101C10008831E1F3F39484E0F812F3CF888D8430B7
:101C200059F01D870C871A8E198E20E0A80162E0FA
:101C30000E94541081E001C080E0DF91CF911F919C
:101C40000F91FF9008950F931F93CF93DF93CDB71C
:101C5000DEB728970FB6F894DEBF0FBECDBF8C015C
:101C6000DC01ED91FC910284F385E02D0995F801EA
:101C7000808D0E944F121816190644F548E050E076
:101C8000BE016F5F7F4FD80158968C910E94EF1173
:101C900018161906ECF4BE016F5F7F4FC8010E964F
:101CA0000E9400268D8190E0982F88272E81820F38
:101CB000911DF801958B848B8F8190E0982F882758
:101CC0002885820F911D928F818F02C080E090E065
:101CD00028960FB6F894DEBF0FBECDBFDF91CF912F
:101CE0001F910F9108958F929F92AF92BF92CF92C2
:101CF000DF92EF92FF920F931F93CF93DF9300D069
:101D000000D000D0CDB7DEB78C017B014A01FC01C9
:101D1000808D843009F063C073E0A72E74E0B72E85
:101D2000C12CD12CC5010E944D14811103C0F801B2
:101D3000C08E0AC08831D9F3FFEFCF1ADF0AB394FF
:101D4000E4E0CE16D10471F7F801808D843009F4F7
:101D500046C096E0EBE1F1E0DE01119601900D92B4
:101D60009A95E1F7F70193819F779C8394819D83F6
:101D700095819E83B7016E5F7F4F90E0982F8827F3
:101D800044E050E0845F9B4F0E941E14F801808D58
:101D900090E00496F82EEE24692DC70140960E942B
:101DA0009413682DC70141960E949413F801808D09
:101DB00090E0982F882746E050E0BE016F5F7F4F8C
:101DC0008A5F9B4F0E941E14F801128E118E20E82C
:101DD000A40162E0808D0E94541081E001C080E087
:101DE00026960FB6F894DEBF0FBECDBFDF91CF9120
:101DF0001F910F91FF90EF90DF90CF90BF90AF9029
:101E00009F908F900895CF93DF93EC011B821A82ED
:101E100048EE53E060E070E04C835D836E837F8327
:101E20008AE591E099838883CE010E960E94DA2597
:101E300084E0888FDF91CF910895CF92DF92EF9267
:101E4000FF920F931F93CF93DF93CDB7DEB7AF977A
:101E50000FB6F894DEBF0FBECDBF7C018B016A01C7
:101E6000CE0101960E94DA25CE0109960E94030F49
:101E7000CE018A960E94DA256CE275E0CE01849646
:101E80000E948909BE016C5D7F4FCE0101960E94C0
:101E90009E05AE01465D5F4FB801CE0101960E94DE
:101EA000F50781309105C1F4D701ED91FC910088CF
:101EB000F189E02D83EB94E09DA38CA30CA51DA5D7
:101EC0002EA53FA50EA31FA328A739A7A601BE01D3
:101ED0006C5D7F4FC7010995AF960FB6F894DEBFD2
:101EE0000FBECDBFDF91CF911F910F91FF90EF906B
:101EF000DF90CF9008950F9300E020E040E060E095
:101F000086E595E00E94E4250F910895CF92DF9237
:101F1000EF92FF920F9330E0C12CF2E1DF2EFAE74F
:101F2000EF2EF12C4C155D056E057F0540F4F694FF
:101F3000E794D794C7943F5F3630A1F737E041E08C
:101F40004327211102C050E701C050E5242F30E0A3
:101F50003595279523700C70202B252BFC012083B1
:101F6000417041830F91FF90EF90DF90CF900895E3
:101F700090E0982F882744E050E0845F9B4F0C94BA
:101F80001E14282F30E02C5F3F4F922F8827860F9A
:101F9000971F0C944D1462E070E00C94C10FFB018C
:101FA000282F30E02C5F3F4F922F8827642F8E0F11
:101FB0009F1F0C949413CF93DF93C82FD62F472FD6
:101FC00064E070E00E94CF0F4D2F65E070E08C2F31
:101FD000DF91CF910C94CF0F462F62E070E00C940C
:101FE000CF0FCF93DF93C82FD62F472F60E170E03C
:101FF0000E94CF0F4D2F61E170E08C2FDF91CF91C8
:102000000C94CF0F0F931F93CF93DF9300D01F92A9
:10201000CDB7DEB7182F00E021E040E059E06DE3D6
:1020200070E0CE0101960E94860F89819A810E94FC
:10203000880863E070E0812F0E94C10F8B830E94AB
:10204000A2088B810F900F900F90DF91CF911F917D
:102050000F9108950F931F93CF93DF9300D0CDB7C7
:10206000DEB7182F00E021E040E059E06DE370E0BA
:10207000CE0101960E94860F89819A810E9488086C
:1020800040E150E0612F8EE595E00E9417166FEF5A
:10209000812F0E94EC0F0E94A2080F900F90DF91F9
:1020A000CF911F910F910895CF92DF92EF92FF92FF
:1020B0000F931F93CF93DF9300D0CDB7DEB7182FC8
:1020C000D62E7A01C22E8FEF860F8530A8F5812F8C
:1020D0000E942A1000E021E040E059E06DE370E04A
:1020E000CE0101960E94860F89819A810E948808FC
:1020F0004D2D4C2960E070E0812F0E94CF0FE1143C
:10210000F10411F0B7010AC060915C0570915D05A2
:102110006F5F7F4F70935D0560935C05812F0E9418
:10212000DB0F41E050E0612F8EE595E00E9417162D
:102130000E94A20881E001C080E00F900F90DF9123
:10214000CF911F910F91FF90EF90DF90CF90089566
:102150000F931F93CF93DF9300D0CDB7DEB7182F27
:1021600000E021E040E059E06DE370E0CE0101962F
:102170000E94860F89819A810E94880863E070E03E
:10218000812F0E94C10F833121F00E94A20880E0BC
:102190000AC042E050E0612F8EE595E00E941716DC
:1021A0000E94A20881E00F900F90DF91CF911F91C4
:1021B0000F910895CF92DF92EF92FF920F931F93AA
:1021C000CF93DF9300D0CDB7DEB7182F7B016A0124
:1021D000FB0180818F3F51F481818F3F99F482818F
:1021E0008F3F81F483818F3F69F430C081110AC031
:1021F000FB018181811106C08281811103C083812D
:10220000882321F1C114D10409F100E021E040E06C
:1022100059E06DE370E0CE0101960E94860F89813E
:102220009A810E948808B701812F0E94B80FB601D9
:10223000812F0E94F10F44E050E0612F8EE595E080
:102240000E9417160E94A20881E001C080E00F9052
:102250000F90DF91CF911F910F91FF90EF90DF9042
:10226000CF9008950F931F93CF93DF9300D0CDB7F6
:10227000DEB7182F00E021E040E059E06DE370E0A8
:10228000CE0101960E94860F89819A810E9488085A
:1022900048E050E0612F8EE595E00E9417160E94FD
:1022A000A2080F900F90DF91CF911F910F91089589
:1022B000BF92CF92DF92EF92FF920F931F93CF9333
:1022C000DF9300D01F92CDB7DEB7B82E6B017A0135
:1022D000413088E0580718F0E12C98E0F92E00E032
:1022E00021E040E059E06DE370E0CE0101960E94EC
:1022F000860F89819A810E9488086B2D8EE595E072
:102300000E9485148C0163E070E08B2D0E94C10F48
:102310008B830E94A2088B81873111F08C3131F4BC
:102320000E946F210E151F05D0F202C0E12CF12C86
:1023300000E021E040E059E06DE370E0CE0101965D
:102340000E94860F89819A810E9488089701A601C0
:102350006B2D8EE595E00E94441540E250E06B2D18
:102360008EE595E00E9417168B2D0E94CB0F84FD01
:1023700022C063E070E08B2D0E94C10F811108C064
:102380000E94A2088B2D0E942A1080E090E01AC0C3
:102390000E94A2080E946F2100E021E040E059E085
:1023A0006DE370E0CE0101960E94860F89819A81CB
:1023B0000E948808D9CF60E18B2D0E94EC0F0E940B
:1023C000A208C7010F900F900F90DF91CF911F913E
:1023D0000F91FF90EF90DF90CF90BF900895AF9254
:1023E000BF92CF92DF92EF92FF920F931F93CF9302
:1023F000DF9300D0CDB7DEB7182F5B016A0100E094
:1024000021E040E059E06DE370E0CE0101960E94CA
:10241000860F89819A810E948808612F8EE595E058
:102420000E94B9147C010097A1F463E070E0812F51
:102430000E94C10F843119F1882309F121E030E0B5
:102440008C3111F420E030E0EE24FF24E21AF30A8C
:1024500016C0C816D9060CF476011E141F047CF4AD
:1024600000E09701A501612F8EE595E00E94C71558
:1024700040E450E0612F8EE595E00E9417160E941F
:10248000A208C7010F900F90DF91CF911F910F917C
:10249000FF90EF90DF90CF90BF90AF9008950F9393
:1024A0001F93CF93DF9300D000D0CDB7DEB7182FA6
:1024B00000E021E040E059E06DE370E0CE010196DC
:1024C0000E94860F89819A810E948808612F8EE57B
:1024D00095E00E94B9148B839C830E94A2088B8193
:1024E0009C810F900F900F900F90DF91CF911F91D3
:1024F0000F910895EF92FF920F931F93CF93DF9365
:1025000000D0CDB7DEB7182F7B0100E021E040E01E
:1025100059E06DE370E0CE0101960E94860F89813B
:102520009A810E94880801E021E030E0A701612F34
:102530008EE595E00E94C7150E94A20881E090E018
:102540000F900F90DF91CF911F910F91FF90EF901F
:10255000089508959F92AF92BF92CF92DF92EF922B
:10256000FF920F931F93CF93DF9300D0CDB7DEB7C9
:10257000982E6B015A01790100E021E040E059E01A
:102580006DE370E0CE0101960E94860F89819A81E9
:102590000E948808692D8EE595E00E9485148E15AD
:1025A0009F0530F4692D8EE595E00E9485147C012D
:1025B00087019501A601692D8EE595E00E94D5144D
:1025C0000E94A208C7010F900F90DF91CF911F9139
:1025D0000F91FF90EF90DF90CF90BF90AF909F90C2
:1025E0000895CF92DF92EF92FF920F931F93CF93B4
:1025F000DF9300D0CDB7DEB7182F7B016A01FB0156
:102600008081811109C08181811106C0828181117F
:1026100003C083818823F1F0C114D104D9F000E014
:1026200021E040E059E06DE370E0CE0101960E94A8
:10263000860F89819A810E948808B701812F0E94A4
:10264000B80FB601812F0E94F10F0E94A20881E00D
:1026500090E002C080E090E00F900F90DF91CF916A
:102660001F910F91FF90EF90DF90CF9008950F93FF
:102670001F93CF93DF9300D0CDB7DEB7182F00E0C4
:1026800021E040E059E06DE370E0CE0101960E9448
:10269000860F89819A810E94880840E250E0612F6C
:1026A0008EE595E00E941716812F0E94CB0F84FDC6
:1026B00021C0812F0E94CB0F83FF09C068E1812FC9
:1026C0000E94EC0F0E94A20880E090E01BC00E94D4
:1026D000A2080E946F2100E021E040E059E06DE394
:1026E00070E0CE0101960E94860F89819A810E9436
:1026F0008808DACF60E1812F0E94EC0F0E94A208C7
:1027000081E090E00F900F90DF91CF911F910F919A
:1027100008958EBD00000DB407FEFDCF8EB508955F
:102720002A9808952A9A08951F93CF93DF9300D093
:10273000CDB7DEB7182F6A8399830E94901380EF7C
:102740000E9489139981892F0E948913812F0E94E9
:1027500089136A81862F0E9489130E94921381E057
:102760000F900F90DF91CF911F910895CF93DF933A
:10277000EC016CE271E080E090E00E946A220E942D
:10278000AD1B229A80914A06882399F09FB7F8944E
:1027900080914A06813059F48DB3809348062DB359
:1027A00080914906809582238DBB9FBF02C0909384
:1027B000480680E58CBD1DBC60E880E090E00E948A
:1027C000941365E58BE190E00E94941365E58AE13E
:1027D00090E00E94941380914A06882361F09FB78D
:1027E000F89420914A0680914806213019F48DBB57
:1027F0009FBF01C08FBF80E090E49983888380E011
:1028000090E69987888780E098E49B838A8380E0BC
:1028100098E69B878A8780E090E59D838C8380E0A3
:1028200090E79D878C8780E098E59F838E8380E08A
:1028300098E79F878E87DF91CF910895CF92DF929F
:10284000EF92FF920F931F93CF93DF93EC017A01E6
:102850008B016C01C40ED51ECC15DD05A1F00E94C4
:10286000901380EF0E9489138D2F0E9489138C2F63
:102870000E9489132196F80181918F010E9489138A
:102880000E949213E9CFC701DF91CF911F910F9161
:10289000FF90EF90DF90CF9008951F93CF93DF9339
:1028A0001F92CDB7DEB7182F99830E9490138FE047
:1028B0000E9489139981892F0E948913812F0E9478
:1028C000891380E00E94891389830E949213898171
:1028D0000F90DF91CF911F9108951F93CF93DF93B6
:1028E000182F60E270E00E94C10FC82FD0E061E2B3
:1028F00070E0812F0E94C10FDC2FCC279E01282B76
:10290000C901DF91CF911F910895FF920F931F93FB
:10291000CF93DF93F62EC0E0D0E08F2D0E946D1490
:102920008C01009721F08F2D0E946D14EC01C017CF
:10293000D10799F7CE01DF91CF911F910F91FF90B1
:1029400008951F93CF93DF93182F66E270E00E94E3
:10295000C10FC82FD0E067E270E0812F0E94C10F45
:10296000DC2FCC279E01282BC901DF91CF911F912D
:102970000895FF920F931F93CF93DF93F62EC0E03D
:10298000D0E08F2D0E94A1148C01009721F08F2D93
:102990000E94A114EC01C017D10799F7CE01DF9175
:1029A000CF911F910F91FF9008956F927F929F9208
:1029B000AF92BF92CF92DF92EF92FF920F931F934D
:1029C000CF93DF931F92CDB7DEB7D82E962E3A0164
:1029D000590164E270E0892D99830E94C10FE82EAD
:1029E000F12C65E270E0892D0E94C10FFE2CEE24CF
:1029F000E82AE60CF71C970137706D2C9981792E27
:102A0000690C711C690C711CD301ED91FC91E20FF2
:102A1000F31FC901800F911F81309840A0F0C12C95
:102A200048E0D42EC21AD30AA601B501CF010E94F4
:102A30001E14A8014C195D09B5016C0D7D1DF30133
:102A40008081918103C0A801B501CF010E941E14AD
:102A5000E00EF11E4F2D64E270E0892D0E94CF0F31
:102A60004E2D65E270E0892D0F90DF91CF911F917F
:102A70000F91FF90EF90DF90CF90BF90AF909F901D
:102A80007F906F900C94CF0F0F931F9389019A0141
:102A900040E050E00E94D5141F910F910895CF920D
:102AA000DF92EF92FF920F931F93CF93DF93EC018E
:102AB0007A018B016C01C40ED51ECC15DD05A9F081
:102AC0000E9490138FE00E9489138D2F0E9489131A
:102AD0008C2F0E948913219680E00E948913F801AF
:102AE00081938F010E949213E8CFC701DF91CF91AC
:102AF0001F910F91FF90EF90DF90CF900895AF92CC
:102B0000BF92CF92DF92EF92FF920F931F93CF93DA
:102B1000DF9300D0CDB7DEB75A8349835901E981ED
:102B2000FA81F7707C01E60EF11CE60EF11CD7016C
:102B300018968D919C9119978E0F9F1F98012E0FBB
:102B40003F1F2130384098F0C12C68E0D62ECE1AB5
:102B5000DF0AA601B5010E944F15A8014C195D09B5
:102B6000B5016C0D7D1DF7018085918502C0A8011E
:102B7000B5010F900F90DF91CF911F910F91FF90B2
:102B8000EF90DF90CF90BF90AF900C944F158F9245
:102B90009F92AF92BF92CF92DF92EF92FF920F93EC
:102BA0001F93CF93DF936C01962E5A017901802EEB
:102BB00068E270E0892D0E94C10FC82FD0E069E261
:102BC00070E0892D0E94C10FDC2FCC27C82B870114
:102BD0009501AE01692DC6010E947F1581101AC0B2
:102BE000CE0DDF1D4D2F68E270E0892D0E94CF0FC2
:102BF0004C2F69E270E0892DDF91CF911F910F91E9
:102C0000FF90EF90DF90CF90BF90AF909F908F900C
:102C10000C94CF0FDF91CF911F910F91FF90EF9008
:102C2000DF90CF90BF90AF909F908F900895CF93FB
:102C3000C62F61E070E08C2F0E94CF0F61E070E042
:102C40008C2F0E94C10F8111F9CFCF910895FC0103
:102C50008FEF9FEF938382832EE531E035832483CA
:102C60002AE030E03783268321E020879183808328
:102C70008CE390E090930D0180930C011092440638
:102C80001092450610924606109247060895FC01E0
:102C9000862F6283738361E00C941E23FC01808184
:102CA00091818F3FFFEF9F0791F0109244061092A1
:102CB000450610924606109247061092430610925F
:102CC000420641E050E06FED7AE10C9471210895E5
:102CD000CF93DF93EC0188810E9491218FEF9FEFCA
:102CE00099838883DF91CF910895BF92CF92DF922D
:102CF000EF92FF920F931F93CF93DF93EC016B0141
:102D00007A01088119818A819B810196D9F10F3F4F
:102D10003FEF130731F0CE010E946816BB24B39435
:102D200001C0B12C61E08A810E9457238C819D8172
:102D30009C01C29EC001C39E900DD29E900D112495
:102D40000E94922260E08A810E9457238C819D819B
:102D50009C01E29EC001E39E900DF29E900D112415
:102D60000E949222BB2071F019830883CE01DF916B
:102D7000CF911F910F91FF90EF90DF90CF90BF9078
:102D80000C944E16DF91CF911F910F91FF90EF9011
:102D9000DF90CF90BF900895FC012085213019F479
:102DA00043E050E004C0223029F442E050E061E00A
:102DB00070E006C0233031F44BE050E064E070E096
:102DC0000C9475160895FC012085213029F441E00A
:102DD00050E063E070E00DC0223029F441E050E0A3
:102DE00062E070E006C0233031F446E050E069E074
:102DF00070E00C9475160895FC012085213019F4BB
:102E00004FE150E009C0223019F44AE050E004C01C
:102E1000233031F447E450E061E070E00C94751623
:102E20000895CF92DF92EF92FF920F931F93CF936B
:102E3000DF938C016B01E12CF12CF80186819781E5
:102E4000E816F906C4F4CC2DDD2D8991882361F0B4
:102E5000803331F08133C9F7C8010E94E316F5CF02
:102E6000C8010E94CC16F1CFC8010E94FC168FEF5A
:102E7000E81AF80AE2CFDF91CF911F910F91FF90EE
:102E8000EF90DF90CF9008952F923F924F925F92F4
:102E90006F927F928F929F92AF92BF92CF92DF926A
:102EA000EF92FF920F931F93CF93DF93CDB7DEB7CF
:102EB00060970FB6F894DEBF0FBECDBF1C018091A6
:102EC000B8059091B9056FE170E00E94B32A8B01BB
:102ED0004B01A12CB12CA0910C01B0910D019B01D3
:102EE0000E94322B0E94B2292AE037ED43E25CE3D4
:102EF0000E94402A0E9486296B017C019801A3E070
:102F0000B0E00E94232B9B01AC012C193D094E0916
:102F10005F092D833E834F83588726013701460E74
:102F2000571E681E791E21E030E080E090E0DC0151
:102F3000B501A4014C195D096E097F0949875A87BB
:102F40006B877C87B701A601480D591D6A1D7B1D43
:102F50004D875E876F87788B2215330508F073C025
:102F6000F901EE0FFF1FE854FA4F0190F081E02DB8
:102F70004F01A12CB12CC984DA84EB84FC84C814E1
:102F8000D904EA04FB0428F54D855E856F857889B0
:102F900084169506A606B706E0F4F901EE0FFF1FAA
:102FA000E654FA4FE080F180A70160E070E04983C9
:102FB0005A836B837C83CD80DE80EF80F884C416D7
:102FC000D506E606F70628F4441555056605770587
:102FD00070F14D815E816F817885481559056A05CC
:102FE0007B0550F584149504A604B70428F5F9016F
:102FF000EE0FFF1FE654FA4F0190F081E02D4F01D4
:10300000A12CB12CC984DA84EB84FC84C814D904C3
:10301000EA04FB0488F44D855E856F857889841603
:103020009506A606B70640F40196A11DB11D880FAE
:10303000991FAA1FBB1F04C0910180E090E0DC0132
:103040002E5F3F4F89CFB695A7959795879557E007
:1030500025163104C0F08093440690934506A09352
:103060004606B09347063694279430924306209242
:103070004206109341060093400621E030E0309371
:103080003F0620933E0621E0892B8A2B8B2B09F4E7
:1030900020E0822F60960FB6F894DEBF0FBECDBF42
:1030A000DF91CF911F910F91FF90EF90DF90CF9024
:1030B000BF90AF909F908F907F906F905F904F9058
:1030C0003F902F9008952F923F924F925F926F9270
:1030D0007F928F929F92AF92BF92CF92DF92EF92A8
:1030E000FF920F931F93CF93DF93CDB7DEB7609717
:1030F0000FB6F894DEBF0FBECDBF1C018091B8059E
:103100009091B9056AE070E00E94B32A8B016B01CF
:10311000E12CF12CA0910C01B0910D019B010E94BA
:10312000322B0E94B2292AE037ED43E25CE30E9491
:10313000402A0E94862946015701880C991CAA1C26
:10314000BB1CA5019401261B370B480B590B2D877F
:103150003E874F87588B9B01AC01280D391D4A1DB6
:103160005B1D2D833E834F83588721E030E0198219
:103170001A821B821C8246015701861A970AA80AE6
:10318000B90A4D815E816F8178854C195D096E09A0
:103190007F096A017B012215330508F07CC0F90123
:1031A000EE0FFF1FE854FA4F0190F081E02D2F0140
:1031B000612C712C84149504A604B70460F54C149A
:1031C0005D046E047F0438F5F901EE0FFF1FE6542D
:1031D000FA4F40815181BA0180E090E069877A8797
:1031E0008B879C87DC01CB014D855E856F85788957
:1031F000481759076A077B0770F44D815E816F811C
:10320000788584179507A607B70728F469817A811E
:103210008B819C812FC08D859E85AF85B889841553
:103220009505A605B70578F54D815E816F81788596
:10323000441655066606770630F5F901EE0FFF1FB6
:10324000E654FA4F0190F081E02D2F01612C712C92
:1032500084149504A604B704B0F44C145D046E0401
:103260007F0488F469817A818B819C816F5F7F4FB5
:103270008F4F9F4F660F771F881F991F69837A832F
:103280008B839C8305C0910119821A821B821C8248
:103290002E5F3F4F80CF89819A81AB81BC81B695EB
:1032A000A7959795879577E027163104C0F080930E
:1032B000440690934506A0934606B093470636947D
:1032C00027943092430620924206109341060093C1
:1032D000400622E030E030933F0620933E0621E096
:1032E000892B8A2B8B2B09F420E0822F60960FB656
:1032F000F894DEBF0FBECDBFDF91CF911F910F912C
:10330000FF90EF90DF90CF90BF90AF909F908F9005
:103310007F906F905F904F903F902F9008952F92E5
:103320003F924F925F926F927F928F929F92AF9255
:10333000BF92CF92DF92EF92FF920F931F93CF93A2
:10334000DF93CDB7DEB76C970FB6F894DEBF0FBE34
:10335000CDBF8C018091B8059091B90567E470E00C
:103360000E94B32A1B01A0910C01B0910D019B0199
:103370000E94322B0E94B2292AE037ED43E25CE33F
:103380000E94402A0E9486296B017C01C101A0E0B5
:10339000B0E052E0880F991FAA1FBB1F5A95D1F7C2
:1033A0004C015D018C189D08AE08BF0889829A8285
:1033B000AB82BC82B701A601480F591F6A1F7B1F51
:1033C0004D835E836F8378879101ABE0B0E00E940C
:1033D000232B4B015C018C189D08AE08BF08898621
:1033E0009A86AB86BC8646015701860E971EA81E9C
:1033F000B91E8D869E86AF86B88AA9E0B0E00E948D
:10340000232B4B015C018C189D08AE08BF08898AEC
:103410009A8AAB8ABC8A46015701860E971EA81E5F
:10342000B91E8D8A9E8AAF8AB88EA6E0B0E00E944F
:10343000232B9B01AC012C193D094E095F09298FF3
:103440003A8F4B8F5C8FC60ED71EE81EF91E21E007
:1034500030E080E090E0DC012017310708F070C018
:10346000F901EE0FFF1FE854FA4F408151812A0104
:10347000612C712C49815A816B817C8144155505E1
:103480006605770520F58D809E80AF80B88448144E
:1034900059046A047B04D8F4F901EE0FFF1FE654C7
:1034A000FA4F4081518160E070E089849A84AB8456
:1034B000BC8484169506A606B70648F48D849E84BF
:1034C000AF84B888481559056A057B0568F14989B4
:1034D0005A896B897C89441555056605770548F539
:1034E0008D889E88AF88B88C481459046A047B0480
:1034F00000F5F901EE0FFF1FE654FA4F40815181AC
:103500002A01612C712C498D5A8D6B8D7C8D44154F
:1035100055056605770568F44C145D046E047F0458
:1035200040F40196A11DB11D880F991FAA1FBB1F52
:1035300004C0980180E090E0DC012E5F3F4F8CCF0B
:10354000B695A7959795879507301105C0F080939C
:10355000440690934506A0934606B09347061695F9
:10356000079510934306009342063092410620923D
:10357000400623E030E030933F0620933E0621E0F2
:10358000892B8A2B8B2B09F420E0822F6C960FB6A7
:10359000F894DEBF0FBECDBFDF91CF911F910F9189
:1035A000FF90EF90DF90CF90BF90AF909F908F9063
:1035B0007F906F905F904F903F902F900895CF92A3
:1035C000DF92EF92FF920F931F93CF93DF930E94AE
:1035D00047226B017C018091B4059091B50586016D
:1035E000081B190B1093B3050093B205093883E14A
:1035F0001807C0F18091B8059091B9059C01285C2D
:1036000031092017310750F588539F4F08171907C4
:1036100028F58091B0059091B10501969093B10580
:103620008093B005C091AE05D091AF052197D0939E
:10363000AF05C093AE05029789F4CE010E944417EE
:10364000811108C0CE010E946318811103C0CE0110
:103650000E948F191092B1051092B0051092AF051B
:103660001092AE058091AE059091AF05833491051F
:1036700040F01092AF051092AE051092B105109275
:10368000B005E091AE05F091AF05CF0101969093A2
:10369000AF058093AE05EE0FFF1FE854FA4F11837C
:1036A0000083C092B405D092B505E092B605F092C1
:1036B000B705DF91CF911F910F91FF90EF90DF90B1
:1036C000CF900895CF93DF93EEE8F5E0A0E0B0E06F
:1036D000611571058105910561F0119660FF02C0C9
:1036E00031E301C0322F3193969587957795679591
:1036F000EFCFEEE6F5E080E090E0BA016A1B7B0BCD
:10370000DA01A259BA4F8417950769F0861797070F
:1037100030F0ED01C81BD90B3F8D308301C02083F1
:1037200001963196F0CFFC01E259FA4F10828EE6F5
:1037300095E0DF91CF91089520E30C94621BCF9325
:10374000DF93EC01CB01BA01A9010E949C1BBC01D3
:10375000CE01DF91CF910C941117CF93CFB7F8948E
:1037600080914B06811127C0EAE9F0E08491E6E8F8
:10377000F0E09491E82FF0E0EE0FFF1FE854FF4FC8
:10378000A591B4918C91892321F461E08AE00E9493
:10379000572361E08AE00E941E238CB580618CBDB6
:1037A0008CB580648CBD61E08DE00E941E2361E0D9
:1037B0008BE00E941E2380914B068F5F80934B0607
:1037C000CFBFCF9108950C943B220F931F93CF93BB
:1037D000DF93EC01662359F00E943B2269837A83D0
:1037E0008B839C83DF91CF911F910F9108950E944D
:1037F0003B2209811A812B813C81601B710B820B5A
:10380000930B623371058105910530F763E070E039
:1038100080E090E00E946A22EACF60E00C94E51B11
:10382000FC0113AA14AA15AA16AA118212821382E5
:103830001482411551056105710521F0CB01BA01D2
:103840000C946A220895FB01BA01A901DC01D29609
:10385000FC93EE93D19726E0CF010C9499241F930B
:10386000CF93DF93EC01162F6CE771E089A99AA939
:103870000E9452264AE050E0612F89A99AA90E942D
:103880004B2763E871E089A99AA90E94522662E356
:1038900070E080E090E0DF91CF911F910C946A225C
:1038A0001F93CF93DF93EC01162F8D81882389F12D
:1038B00089A99AA9DC01ED91FC910480F581E02DA4
:1038C0000995892BA9F307C02637310519F1283549
:1038D000310509F41D8289A99AA9DC01ED91FC91B9
:1038E0000480F581E02D09951816190694F489A92C
:1038F0009AA9DC01ED91FC910680F781E02D0995F4
:103900009C01332723363105F9F6612FCE010E9441
:103910002F1C83E6DF91CF911F9108950F931F9382
:10392000CF93DF931F92CDB7DEB78C01662349F0AA
:1039300081E0F801858360E0C80149830E94501C42
:103940004981F80145830F90DF91CF911F910F912D
:1039500008956115710581F0DB010D900020E9F7F4
:10396000AD0141505109461B570BDC01ED91FC9113
:103970000280F381E02D099480E090E00895AF92F9
:10398000BF92CF92DF92EF92FF920F931F93CF934C
:10399000DF93EB010E94D822BC01882777FD809538
:1039A000982FAE01415051098A01222717FD209519
:1039B000322F3F932F931F930F93A12CB12C6501AE
:1039C000EE24EA9413E0F12E00E010E020E030E075
:1039D000A9010E9492270F900F900F900F90CB019A
:1039E000DF91CF911F910F91FF90EF90DF90CF90DB
:1039F000BF90AF900895CF92DF92EF92FF920F9316
:103A00001F93CF93DF93CDB7DEB72C970FB6F89403
:103A1000DEBF0FBECDBF6C018B017A016BE871E098
:103A2000CE0107960E9447284AE0B601CE010196D2
:103A30000E94D728BE016F5F7F4FCE0107960E947C
:103A4000B328CE0101960E94D9278B859C850197CA
:103A5000B1F464ED71E0CE0101960E944728BE01E9
:103A6000695F7F4FCE0101960E942F29BC01CE01D4
:103A700007960E949328CE0101960E94D9278B8534
:103A80009C850297B1F464ED71E0CE0101960E942D
:103A90004728BE01695F7F4FCE0101960E942F2902
:103AA000BC01CE0107960E949328CE0101960E9488
:103AB000D927BE01695F7F4FCE0101960E94AA28D7
:103AC0006AE871E0CE0101960E944229BC01CE0154
:103AD00007960E949328CE0101960E94D92720E0E4
:103AE00030E0A701B801CE0107960E945C29CE0103
:103AF00007960E94D9272C960FB6F894DEBF0FBE0A
:103B0000CDBFDF91CF911F910F91FF90EF90DF908C
:103B1000CF9008951F93CF93DF9300D000D0CDB7FF
:103B2000DEB7182F19821A821B821C8264E174E0AE
:103B30008CEB96E00E945226612F8CEB96E00E945F
:103B4000542666ED71E08CEB96E00E945226113609
:103B5000C1F054F4123309F491C0133309F4B3C023
:103B6000113309F062C065C0133779F1143709F4D5
:103B700046C0193609F059C061E089E00E94572318
:103B8000CAC044E050E0BE016F5F7F4F8091920653
:103B9000909193060E94FB1CE0919F06F091A00675
:103BA0000280F381E02D44E050E0BE016F5F7F4F63
:103BB0008FE996E009956CED71E08CEB96E00E9440
:103BC0005226BE016F5F7F4F0CC0809195068823FF
:103BD00069F065EE71E08FE996E00E94A91C6AEE3B
:103BE00071E08CEB96E00E94692695C06AEF71E067
:103BF0008FE996E00E94A91C6FEF71E0F2CF8091EF
:103C00009506882329F01092950660E172E005C0C0
:103C100081E08093950667E272E08CEB96E00E946B
:103C2000692681E08093940676C060E089E00E9476
:103C3000572380919006909191060196909391065A
:103C4000809390066DE372E08CEB96E00E9469260B
:103C5000809190069091910662E070E00E94C72AE0
:103C600028E130E0019729F44FE659E765EA70E072
:103C70004EC04EE659E765EA70E049C080918E0675
:103C800090918F06019690938F0680938E066BE637
:103C900072E08CEB96E00E94692680918E069091EE
:103CA0008F0662E070E00E94C72A28E130E00197A9
:103CB00029F44DE659E765EA70E029C04CE659E77A
:103CC00065EA70E024C080918E0690918F0601967F
:103CD00090938F0680938E066BE672E08CEB96E0F5
:103CE0000E94692680918E0690918F0662E070E0B6
:103CF0000E94C72A28E130E0019729F44BE659E7F2
:103D000065EA70E004C04AE659E765EA70E085E8D4
:103D100096E00E949F1B0F900F900F900F90DF91E5
:103D2000CF911F910895CF93DF93EB010E948D23D4
:103D300021E0892B09F420E02093840680918306FA
:103D4000222379F0882341F061E070E080E090E088
:103D5000DF91CF910C946A2281E08093830688835F
:103D600006C0882389F310928306188281E080932D
:103D70009406DF91CF910895CF93C82F61E00E9400
:103D8000572364E670E080E090E00E946A2260E0E1
:103D90008C2F0E94572364E670E080E090E0CF9182
:103DA0000C946A22FF920F931F93CF93DF93F82E08
:103DB0008B01CEE1D0E061E08F2D0E94572364E1BA
:103DC00070E080E090E00E946A2260E08F2D0E9407
:103DD000572364E170E080E090E00E946A2221971E
:103DE00051F768EE73E080E090E00E946A22C0E044
:103DF000D0E0C017D107B4F461E08F2D0E945723A3
:103E00006CE271E080E090E00E946A2260E08F2D19
:103E10000E9457236CE271E080E090E00E946A22E9
:103E20002196E7CF68EE73E080E090E0DF91CF91DC
:103E30001F910F91FF900C946A220F9300E020E0F5
:103E400040E060E08DEA96E00E94E42560910E017A
:103E500070910F018FE996E00E94DF0B86E996E0F2
:103E60000E94271685E896E00F910C942716EF9292
:103E7000FF920F931F93CF93DF9300D000D000D019
:103E8000CDB7DEB740ED57E060E070E08CE496E03F
:103E90000E94101C20E835E240E050E06CEB76E038
:103EA0008CE496E00E94231C8CE496E00E940D1C9A
:103EB0006BE972E080917D0690917E060E94522609
:103EC0006AE070E080E090E00E946A2241E060E0F9
:103ED0008CE496E00E948E1C60E087E00E941E2326
:103EE00061E085E00E941E2361E086E00E941E23BF
:103EF00061E084E00E941E2361E08DE00E941E23A9
:103F000061E089E00E941E2361E087E00E94572360
:103F100060E085E00E94572361E086E00E9457231D
:103F200060E084E00E94572360E08DE00E94572308
:103F300060E089E00E94572364E070E085E896E045
:103F40000E94471626E040E855E260E070E08CEB06
:103F500096E00E94992410EAE12E1FE0F12E00E085
:103F600010E020E63AEE40E050E060E171E08CE2E3
:103F700095E00E94C808892B39F46DEA72E08CEB59
:103F800096E00E946926FFCF61EE72E08CEB96E02E
:103F90000E94692662E073E08CEB96E00E94522654
:103FA0004AE050E064E070E08CEB96E00E94262747
:103FB00065E373E08CEB96E00E9452264AE050E005
:103FC0006DE070E08CEB96E00E94262763E673E0DC
:103FD0008CEB96E00E9452264AE050E067E070E0E9
:103FE0008CEB96E00E94262768E773E08CEB96E066
:103FF0000E9469266EEA73E08CEB96E00E946926C7
:104000008FE996E00E949B0B6FEF73E08CEB96E0DC
:104010000E9452266CE275E0CE0101960E94710961
:10402000BE016F5F7F4F8CEB96E00E945B266CE2D7
:1040300075E0CE0101960E9471098D81813019F0E1
:10404000E12CF12C03C034E6E32EF12C6CE275E098
:10405000CE0101960E9471090E8110E00E191F0910
:1040600063E174E08CEB96E00E9452264AE050E057
:10407000B8018CEB96E00E941E2766E174E08CEBA1
:1040800096E00E94522669E174E08CEB96E00E9473
:1040900052266CE275E0CE0101960E947109BE01C4
:1040A0006F5F7F4F8CEB96E00E945B2663EE71E0C2
:1040B0008CEB96E00E94522660910E0170910F01E8
:1040C0004AE050E08CEB96E00E941E276EE274E01E
:1040D0008CEB96E00E946926B8018DE090E00E948A
:1040E000D21E26960FB6F894DEBF0FBECDBFDF916D
:1040F000CF911F910F91FF90EF900895CF92DF9293
:10410000EF92FF920F931F93CF93DF93CDB7DEB75C
:104110002D970FB6F894DEBF0FBECDBF0E943B2295
:10412000672B682B692B41F40E943B22623071059A
:104130008105910508F478C08CE496E00E94E31BA9
:104140006093A5067093A6068093A7069093A80691
:104150000091A9061091AA062091AB063091AC06F9
:10416000601771078207930740F46093A906709364
:10417000AA068093AB069093AC060091A906109115
:10418000AA062091AB063091AC066B017C01C01AE7
:10419000D10AE20AF30A970186010A3F11052105B7
:1041A000310508F441C06093A9067093AA06809374
:1041B000AB069093AC068CE496E00E940D1C60E385
:1041C00074E080917D0690917E060E94522668E3FD
:1041D00074E080917D0690917E060E9452260E9496
:1041E0003B22AB01BC012AE030E080917D0690913A
:1041F0007E060E943E276AE374E080917D069091DE
:104200007E060E94522665E070E080E090E00E9409
:104210006A226AE070E080E090E00E946A2261E039
:104220008CE496E00E94501C63E474E08CEB96E012
:104230000E9469266FE976E0CE0101960E94A30CE8
:10424000CE0101960E94CC09811107C08DE090E05B
:104250000E94BC1E66E574E02FC061E774E08CEB41
:1042600096E00E94692660E08DE00E945723CE010F
:1042700001960E94560B8823E9F065E976E087E015
:1042800090E00E94931E64E670E080E090E00E945F
:10429000BF1C9093930680939206CE0101960E94D4
:1042A000F909892B21F3CE0101960E94020A0E948E
:1042B0008A1DF3CF67E874E08CEB96E00E946926D4
:1042C0002D960FB6F894DEBF0FBECDBFDF91CF9114
:1042D0001F910F91FF90EF90DF90CF900895089578
:1042E00008958230E8F4E82FF0E0EE0FFF1FEA5E59
:1042F000FE4F71836083813041F0809169008C7F33
:10430000842B80936900E89A089580916900440F96
:10431000551F440F551F837F842B80936900E99AB2
:104320000895823078F4813011F0E89801C0E9985E
:10433000E82FF0E0EE0FFF1FEA5EFE4F80E791E20C
:104340009183808308951F920F920FB60F921124CC
:104350002F933F934F935F936F937F938F939F938D
:10436000AF93BF93EF93FF93E0911601F091170184
:104370000995FF91EF91BF91AF919F918F917F919F
:104380006F915F914F913F912F910F900FBE0F90C2
:104390001F9018951F920F920FB60F9211242F9312
:1043A0003F934F935F936F937F938F939F93AF93BD
:1043B000BF93EF93FF93E0911801F09119010995D4
:1043C000FF91EF91BF91AF919F918F917F916F91ED
:1043D0005F914F913F912F910F900FBE0F901F90C3
:1043E00018951F920F920FB60F9211242F933F939F
:1043F0008F939F93AF93BF938091B4069091B5062E
:10440000A091B606B091B7063091B30623E0230F12
:104410002D3720F40196A11DB11D05C026E8230FFC
:104420000296A11DB11D2093B3068093B40690930C
:10443000B506A093B606B093B7068091B8069091E2
:10444000B906A091BA06B091BB060196A11DB11D97
:104450008093B8069093B906A093BA06B093BB06B2
:10446000BF91AF919F918F913F912F910F900FBE70
:104470000F901F9018952FB7F8946091B406709123
:10448000B5068091B6069091B7062FBF08953FB745
:10449000F8948091B8069091B906A091BA06B091AF
:1044A000BB0626B5A89B05C02F3F19F00196A11D9C
:1044B000B11D3FBF6627782F892F9A2F620F711D7C
:1044C000811D911D42E0660F771F881F991F4A9535
:1044D000D1F70895CF92DF92EF92FF92CF93DF93BF
:1044E0006B017C010E944722EB01C114D104E1045D
:1044F000F10489F00E946F210E9447226C1B7D0B02
:10450000683E734090F381E0C81AD108E108F108D1
:10451000C851DC4FEACFDF91CF91FF90EF90DF9051
:10452000CF9008958230910538F0880F991F880F39
:10453000991F05970197F1F70895789484B58260E3
:1045400084BD84B5816084BD85B5826085BD85B537
:10455000816085BDEEE6F0E0808181608083E1E8E6
:10456000F0E010828081826080838081816080831E
:10457000E0E8F0E0808181608083E1EBF0E0808121
:1045800084608083E0EBF0E0808181608083EAE7F3
:10459000F0E080818460808380818260808380817C
:1045A000816080838081806880831092C10008953B
:1045B0008E3008F08E50877020911A0190E4299F68
:1045C00090011124822B80937C0080917A0080647A
:1045D00080937A0080917A0086FDFCCF80917800EC
:1045E0002091790090E0922B0895833081F028F497
:1045F000813099F08230A1F008958730A9F0883099
:10460000B9F08430D1F4809180008F7D03C0809117
:1046100080008F7780938000089584B58F7702C0E3
:1046200084B58F7D84BD08958091B0008F7703C0DD
:104630008091B0008F7D8093B0000895CF93DF9379
:1046400090E0FC01E458FF4F2491FC01E057FF4F3C
:104650008491882349F190E0880F991FFC01E85468
:10466000FF4FA591B49182559F4FFC01C591D49104
:104670009FB7611108C0F8948C91209582238C9388
:10468000888182230AC0623051F4F8948C91322FD1
:10469000309583238C938881822B888304C0F8947F
:1046A0008C91822B8C939FBFDF91CF9108950F93B4
:1046B0001F93CF93DF931F92CDB7DEB7282F30E043
:1046C000F901E859FF4F8491F901E458FF4F149123
:1046D000F901E057FF4F04910023C9F0882321F02E
:1046E00069830E94F5226981E02FF0E0EE0FFF1F41
:1046F000E255FF4FA591B4919FB7F8948C91611149
:1047000003C01095812301C0812B8C939FBF0F9014
:10471000DF91CF911F910F910895CF93DF93282FB1
:1047200030E0F901E859FF4F8491F901E458FF4F57
:10473000D491F901E057FF4FC491CC2391F081113E
:104740000E94F522EC2FF0E0EE0FFF1FEC55FF4F1B
:10475000A591B4912C912D2381E090E021F480E08B
:1047600002C080E090E0DF91CF910895FC01818D3F
:10477000228D90E0805C9F4F821B91098F73992757
:104780000895FC01918D828D981731F0828DE80F8C
:10479000F11D858D90E008958FEF9FEF0895FC0146
:1047A000918D828D981761F0828DDF01A80FB11D68
:1047B0005D968C91928D9F5F9F73928F90E008958C
:1047C0008FEF9FEF089583E595E2892B49F080E014
:1047D00090E0892B29F00E94532581110C94000050
:1047E0000895FC01848DDF01A80FB11DA35ABF4FAE
:1047F0002C91848D90E001968F739927848FA689E0
:10480000B7892C93A089B1898C9180648C93938D06
:10481000848D981306C00288F389E02D80818F7DF6
:1048200080830895CF93DF93EC01888D8823C9F0AE
:10483000EA89FB89808185FD05C0A889B9898C91A9
:1048400086FD0FC00FB607FCF5CF808185FFF2CF44
:10485000A889B9898C9185FFEDCFCE010E94F12303
:10486000E7CFDF91CF910895CF92DF92FF920F9320
:104870001F93CF93DF931F92CDB7DEB76C0181E01A
:10488000D60158968C9358975B969C915B975C9653
:104890008C915C97981307C05096ED91FC915197BD
:1048A000808185FD2EC0F601038D10E00F5F1F4F44
:1048B0000F731127F02EF601848DF81211C00FB678
:1048C00007FCF9CFD6015096ED91FC91519780816C
:1048D00085FFF1CFC60169830E94F1236981EBCF87
:1048E000838DE80FF11DE35AFF4F6083D6015B967D
:1048F0000C935B975296ED91FC9153978081806267
:104900000CC0D6015696ED91FC9157976083509656
:10491000ED91FC91519780818064808381E090E0EB
:104920000F90DF91CF911F910F91FF90DF90CF906B
:104930000895BF92CF92DF92EF92FF92CF93DF93D1
:10494000EC016A017B01B22EE889F98982E080835B
:10495000411581EE580761057105A1F060E079E02D
:104960008DE390E0A70196010E94DB2A21503109D6
:10497000410951095695479537952795211580E1AD
:10498000380798F0E889F989108260E874E88EE1C8
:1049900090E0A70196010E94DB2A215031094109CC
:1049A00051095695479537952795EC85FD853083B8
:1049B000EE85FF852083188EEC89FD89B082EA8917
:1049C000FB89808180618083EA89FB89808188609E
:1049D0008083EA89FB89808180688083EA89FB89FA
:1049E00080818F7D8083DF91CF91FF90EF90DF906A
:1049F000CF90BF9008951F920F920FB60F9211247F
:104A00002F938F939F93EF93FF93E091CC06F091B8
:104A1000CD068081E091D206F091D30682FD12C0CE
:104A200090818091D5068F5F8F732091D606821773
:104A300051F0E091D506F0E0E454F94F958F809362
:104A4000D50601C08081FF91EF919F918F912F91A9
:104A50000F900FBE0F901F9018951F920F920FB6D8
:104A60000F9211242F933F934F935F936F937F93F4
:104A70008F939F93AF93BF93EF93FF938CEB96E04D
:104A80000E94F123FF91EF91BF91AF919F918F9180
:104A90007F916F915F914F913F912F910F900FBE3A
:104AA0000F901F9018958CEB96E00E94B62321E0A2
:104AB000892B09F420E0822F08951092BF061092EE
:104AC000BE0688EE93E0A0E0B0E08093C00690932D
:104AD000C106A093C206B093C30683EA94E0909304
:104AE000BD068093BC0685EC90E09093C906809348
:104AF000C80684EC90E09093CB068093CA0680ECC5
:104B000090E09093CD068093CC0681EC90E090935A
:104B1000CF068093CE0682EC90E09093D1068093EE
:104B2000D00686EC90E09093D3068093D206109244
:104B3000D5061092D6061092D7061092D806089580
:104B4000AF92BF92CF92DF92EF92FF920F931F939B
:104B5000CF93DF936C017B01C0E0D0E000E010E078
:104B6000F601EC0FFD1F4AE050E06281C7010E9490
:104B70004B275C016EE2C7010E9454268A0D9B1DE3
:104B8000080F191F2196C330D10551F74AE050E0B4
:104B9000F6016581C7010E944B27800F911FDF91AD
:104BA000CF911F910F91FF90EF90DF90CF90BF902A
:104BB000AF90089523EB34E0FC013183208312820F
:104BC00013821482158208950F93FC0183EB94E005
:104BD0009183808362834383248305830F910895A7
:104BE00023EB34E0FC0131832083FB0140815181C0
:104BF00062817381FC0142835383648375830895CA
:104C0000FB014081518162817381FC0142835383A6
:104C100064837583089583EB94E090935A0780939F
:104C2000590710925B0710925C0710925D07109273
:104C30005E07089508950E949D220E941A260E94F0
:104C4000371FC3EED3E20E947E202097E1F30E943B
:104C5000E323F9CFCF92DF92EF92FF920F931F934E
:104C6000CF93DF937C016A01EB0100E010E00C15AB
:104C70001D0571F06991D701ED91FC910190F081D2
:104C8000E02DC7010995892B19F00F5F1F4FEFCF5A
:104C9000C801DF91CF911F910F91FF90EF90DF90AE
:104CA000CF9008950C94A91CDC01ED91FC9101902A
:104CB000F081E02D0994DB01ED91FC9111970190B9
:104CC000F081E02DBC01CD01099469E871E00C94FC
:104CD000A91C0F931F93CF93DF93EC010E94A91C93
:104CE0008C01CE010E946526800F911FDF91CF912C
:104CF0001F910F9108958F929F92AF92BF92CF9282
:104D0000DF92EF92FF920F931F93CF93DF93CDB774
:104D1000DEB7A1970FB6F894DEBF0FBECDBF7C0102
:104D2000C42EE52FCB01D22E19A221E02D1510F0B3
:104D30002AE0D22E8E010F5D1F4F8D2C912CA12CBD
:104D4000B12C6C2D7E2FA50194010E94DB2A8C2DA5
:104D5000D29E80191124015011098A3014F4805D0B
:104D600001C0895CF8018083211531054105510599
:104D700021F0C22EE32FCA01E4CFB801C7010E947F
:104D8000A91CA1960FB6F894DEBF0FBECDBFDF9170
:104D9000CF911F910F91FF90EF90DF90CF90BF9038
:104DA000AF909F908F900895CF92DF92EF92FF92F5
:104DB0000F931F93CF93DF93EC016A017B012115C1
:104DC000310579F4E881F9810190F081E02D642FBB
:104DD000DF91CF911F910F91FF90EF90DF90CF90D7
:104DE00009942A303105E9F477FF1AC06DE20E9478
:104DF00054268C0144275527BA014C195D096E09C8
:104E00007F092AE0CE010E947B26800F911FDF914F
:104E1000CF911F910F91FF90EF90DF90CF90089569
:104E20002AE0B701A601CE01DF91CF911F910F912A
:104E3000FF90EF90DF90CF900C947B269A01AB010E
:104E4000662757FD6095762F0C94D4260F931F93F9
:104E5000CF93DF93EC019A01AB01662757FD609574
:104E6000762F0E94D4268C01CE010E946526800FE9
:104E7000911FDF91CF911F910F9108952115310559
:104E800041F4DC01ED91FC910190F081E02D642F63
:104E900009940C947B269A01462F50E060E070E064
:104EA0000C943E27CF93DF9300D000D0CDB7DEB770
:104EB0009B01AC01611571058105910569F069835C
:104EC0003A834B835C830E94C02C29813A814B81B9
:104ED0005C810E94FD2A03C060E070E0CB010F906E
:104EE0000F900F900F90DF91CF910895CF92DF92A6
:104EF000EF92FF926B017C0162177307840795079D
:104F000064F4CA01B9016C197D098E099F090E94D8
:104F100052276C0D7D1D8E1D9F1DFF90EF90DF9021
:104F2000CF9008954F925F926F927F92AF92BF920F
:104F3000CF92DF92EF92FF920F931F93CF93DF9365
:104F4000CDB7DEB729013A01621B730B840B950BB9
:104F500029893A894B895C892A193B094C095D09E1
:104F6000298B3A8B4B8B5C8B9B01AC0169897A89CD
:104F70008B899C890E94A32AE418F5080609170961
:104F8000A80197010E94FD2A2A0D3B1D4C1D5D1DA5
:104F9000CA01B901DF91CF911F910F91FF90EF905E
:104FA000DF90CF90BF90AF907F906F905F904F90C9
:104FB0000895FC01808191810C94E22BCF93DF93C3
:104FC000EC0188819981009711F00E94E22B1982EF
:104FD00018821D821C821B821A82DF91CF91089554
:104FE0000F931F93CF93DF93EC018B016F5F7F4F84
:104FF000888199810E94CE2C009731F09983888313
:105000001B830A8381E001C080E0DF91CF911F9173
:105010000F910895CF93DF93EC0188819981892BBB
:1050200029F08A819B818617970760F4CE010E9440
:10503000F027882341F08C819D81892B19F4E88128
:10504000F981108281E0DF91CF910895EF92FF9274
:105050000F931F93CF93DF93EC017B018A01BA0179
:105060000E940A28811104C0CE010E94DE2707C0D9
:105070001D830C83B701888199810E94AE2DCE01DA
:10508000DF91CF911F910F91FF90EF900895FC0158
:1050900011821082138212821582148261157105A9
:1050A00059F0FB0101900020E9F7AF01415051098F
:1050B000461B570B0C94262808950F931F93CF93EC
:1050C000DF938C01EB01FC0180819181009799F0C5
:1050D000428153812C813D814217530750F06881F2
:1050E00079810E94AE2D8C819D81F8019583848306
:1050F00013C00E94E22B88819981F80191838083FB
:105100008A819B81938382838C819D819583848313
:10511000198218821B821A821D821C82DF91CF9114
:105120001F910F910895CF93DF93EC01FB01861738
:10513000970761F0608171816115710529F04481E3
:1051400055810E94262802C00E94DE27CE01DF91F1
:10515000CF910895FC011182108213821282158270
:1051600014820C949328CF93DF93EC018617970752
:1051700011F00E945D28CE01DF91CF910895CF9369
:10518000DF93EC016115710561F0FB0101900020D6
:10519000E9F7AF0141505109461B570B0E942628E1
:1051A00002C00E94DE27CE01DF91CF9108950F93B8
:1051B0001F93CF93DF93CDB7DEB762970FB6F89406
:1051C000DEBF0FBECDBF8C01CB01F8011182108272
:1051D000138212821582148250E0BE016F5F7F4FEE
:1051E0000E94C42DBE016F5F7F4FC8010E94BF287F
:1051F00062960FB6F894DEBF0FBECDBFDF91CF91A0
:105200001F910F910895EF92FF920F931F93CF93E9
:10521000DF93EC017B010C811D816115710511F497
:1052200080E016C04115510591F0040F151FB8011B
:105230000E940A288823A1F3288139818C819D81CD
:10524000B701820F931F0E94AE2D1D830C8381E056
:10525000DF91CF911F910F91FF90EF900895CF9321
:10526000DF93EC01FB0144815581608171810E94D3
:105270000329811103C0CE010E94DE27CE01DF91F8
:10528000CF910895CF93DF93EC016115710569F01B
:10529000FB0101900020E9F7AF0141505109461B85
:1052A000570B0E940329811103C0CE010E94DE2703
:1052B000CE01DF91CF9108950F931F93CF93DF938A
:1052C000EB0141155105E9F02097D9F0FC0164810B
:1052D000758126173707A0F4621B730B8A010150F2
:1052E00011096017710708F48B01FC01608171815D
:1052F000620F731FA801CE010E94B52DC00FD11FF0
:105300001882DF91CF911F910F91089598D088F066
:105310009F5790F0B92F9927B751A0F0D1F0660FA1
:10532000771F881F991F1AF0BA95C9F712C0B130BC
:1053300081F09FD0B1E008959CC0672F782F882717
:10534000B85F39F0B93FCCF3869577956795B395FB
:10535000D9F73EF490958095709561957F4F8F4F6A
:105360009F4F0895E89409C097FB3EF4909580956F
:10537000709561957F4F8F4F9F4F9923A9F0F92F1B
:1053800096E9BB279395F695879577956795B79599
:10539000F111F8CFFAF4BB0F11F460FF1BC06F5F7F
:1053A0007F4F8F4F9F4F16C0882311F096E911C091
:1053B000772321F09EE8872F762F05C0662371F0B2
:1053C00096E8862F70E060E02AF09A95660F771FC6
:1053D000881FDAF7880F9695879597F9089597F9BA
:1053E0009F6780E870E060E008959FEF80EC08958B
:1053F00000240A94161617061806090608950024B4
:105400000A9412161306140605060895092E03942D
:10541000000C11F4882352F0BB0F40F4BF2B11F4A1
:1054200060FF04C06F5F7F4F8F4F9F4F089557FD00
:105430009058440F551F59F05F3F71F04795880F02
:1054400097FB991F61F09F3F79F087950895121699
:1054500013061406551FF2CF4695F1DF08C0161645
:1054600017061806991FF1CF8695710561050894F6
:105470000895E894BB2766277727CB0197F908950D
:105480000BD0C4CFB5DF28F0BADF18F0952309F0B0
:10549000A6CFABCF1124EECFCADFA0F3959FD1F3F7
:1054A000950F50E0551F629FF001729FBB27F00DD2
:1054B000B11D639FAA27F00DB11DAA1F649F662727
:1054C000B00DA11D661F829F2227B00DA11D621F76
:1054D000739FB00DA11D621F839FA00D611D221F30
:1054E000749F3327A00D611D231F849F600D211D14
:1054F000822F762F6A2F11249F5750408AF0E1F0B7
:1055000088234AF0EE0FFF1FBB1F661F771F881FFF
:1055100091505040A9F79E3F510570F060CFAACF3F
:105520005F3FECF3983EDCF3869577956795B795EA
:10553000F795E7959F5FC1F7FE2B880F911D969514
:10554000879597F90895DB018F939F930E94392BDC
:10555000BF91AF91A29F800D911DA39F900DB29F0F
:10556000900D11240895AA1BBB1B51E107C0AA1F6F
:10557000BB1FA617B70710F0A61BB70B881F991FF4
:105580005A95A9F780959095BC01CD01089597FB98
:10559000072E16F4009407D077FD09D00E94B32A95
:1055A00007FC05D03EF4909581959F4F0895709526
:1055B00061957F4F0895A1E21A2EAA1BBB1BFD0126
:1055C0000DC0AA1FBB1FEE1FFF1FA217B307E407E2
:1055D000F50720F0A21BB30BE40BF50B661F771F3A
:1055E000881F991F1A9469F760957095809590951A
:1055F0009B01AC01BD01CF010895052E97FB1EF460
:1056000000940E94142B57FD07D00E94DB2A07FC50
:1056100003D04EF40C94142B509540953095219561
:105620003F4F4F4F5F4F08959095809570956195CE
:105630007F4F8F4F9F4F08956927962769277827B7
:10564000872778270895A29FB001B39FC001A39F29
:10565000700D811D1124911DB29F700D811D1124AB
:10566000911D08950E94232BB7FF0895821B930B71
:1056700008950E94232BA59F900DB49F900DA49F89
:10568000800D911D11240895EE0FFF1F0590F491D8
:10569000E02D0994CF93DF938230910510F482E0DE
:1056A00090E0E0916107F091620720E030E0A0E037
:1056B000B0E0309739F14081518148175907B8F06F
:1056C0004817590771F482819381109729F0139636
:1056D0009C938E9312972CC09093620780936107DE
:1056E00027C02115310531F04217530718F0A901E1
:1056F000DB0101C0EF019A01BD01DF010280F381EE
:10570000E02DD7CF21153105F9F0281B390B2430B6
:10571000310580F48A819B816115710521F0FB01BF
:105720009383828304C09093620780936107FE0194
:10573000329644C0FE01E20FF31F819391932250F1
:105740003109398328833AC020915F07309160077F
:10575000232B41F420910201309103013093600723
:1057600020935F072091000130910101211531053F
:1057700041F42DB73EB74091040150910501241B1F
:10578000350BE0915F07F0916007E217F307A0F493
:105790002E1B3F0B2817390778F0AC014E5F5F4F87
:1057A0002417350748F04E0F5F1F50936007409352
:1057B0005F078193919302C0E0E0F0E0CF01DF91B9
:1057C000CF910895CF93DF93009709F487C0FC0130
:1057D000329713821282C0916107D091620720979D
:1057E00081F420813181280F391F80915F079091CA
:1057F00060078217930779F5F0936007E0935F07DE
:105800006DC0DE0120E030E0AE17BF0750F4129605
:105810004D915C9113979D014115510509F1DA01F4
:10582000F3CFB383A28340815181840F951F8A17E0
:105830009B0771F48D919C911197840F951F02968F
:105840009183808312968D919C9113979383828389
:105850002115310529F4F0936207E09361073EC0FA
:10586000D9011396FC93EE9312974D915D91A40F7D
:10587000B51FEA17FB0779F480819181840F951F8A
:105880000296D90111969C938E93828193811396EF
:105890009C938E931297E0E0F0E08A819B810097C1
:1058A00019F0FE01EC01F9CFCE0102962881398171
:1058B000820F931F20915F073091600728173907E7
:1058C00069F4309729F4109262071092610702C0C0
:1058D00013821282D0936007C0935F07DF91CF914C
:1058E00008958F929F92AF92BF92CF92DF92EF92E4
:1058F000FF92CF93DF93EC01688179818A819B814C
:10590000611571058105910521F464E279ED8BE55E
:1059100097E02DE133EF41E050E00E94FD2A49017C
:105920005A019B01AC01A7EAB1E40E94392B6B013B
:105930007C01ACEEB4EFA50194010E94072EC60EC7
:10594000D71EE81EF91EF7FE06C081E0C81AD1086E
:10595000E10880E8F80AC882D982EA82FB82C7019E
:10596000B6019F77DF91CF91FF90EF90DF90CF90BE
:10597000BF90AF909F908F9008950E94712C0895D2
:1059800086E091E00E94712C089560930601709367
:10599000070180930801909309010895A0E0B0E009
:1059A000E4EDFCE20C94102EEC01CB01209719F4ED
:1059B0000E944A2BB8C0FE01E60FF71F9E0122503D
:1059C0003109E217F30708F4ACC0D9010D911C911D
:1059D000119706171707B8F00530110508F49FC096
:1059E000A801445051094617570708F498C00250BF
:1059F0001109061B170B019311936D937C93CF0133
:105A00000E94E22B8CC05B01A01AB10A4E01800EED
:105A1000911EA0916107B0916207612C712C60E02A
:105A200070E0109709F449C0A815B905C9F5ED90C3
:105A3000FC901197670142E0C40ED11CCA14DB042C
:105A400078F147018A189B08640142E0C40ED11C1A
:105A50001296BC9012971396AC91B5E0CB16D10478
:105A600040F0B282A38391828082D9018D939C936E
:105A700009C00E5F1F4F0E0D1F1DF901118300831A
:105A8000EB2DFA2F6115710531F0DB011396FC93B4
:105A9000EE93129744C0F0936207E09361073FC012
:105AA0006D917C9111976616770608F43B01BD0154
:105AB00012960D90BC91A02DB4CF60915F077091AC
:105AC000600768157905E9F468167906D0F4409105
:105AD0000001509101014115510541F44DB75EB7E8
